:020000040800F2
:10000000000002204D0300089D0300089D03000826
:100010009D0300089D0300089D03000800000000E8
:100020000000000000000000000000009D03000828
:1000300000000000000000009D0300089D03000870
:100040009D0300089D0300089D0300089D03000810
:100050009D0300089D0300089D0300089D03000800
:100060009D0300089D0300089D0300089D030008F0
:100070009D0300089D0300089D0300089D030008E0
:100080009D0300089D0300089D0300089D030008D0
:100090009D0300089D0300089D0300089D030008C0
:1000A0009D0300089D0300089D0300089D030008B0
:1000B0009D0300089D0300089D0300089D030008A0
:1000C0009D0300089D0300089D0300089D03000890
:1000D0009D0300089D0300089D0300089D03000880
:1000E0009D0300089D0300089D0300089D03000870
:1000F0009D0300089D0300089D0300089D03000860
:100100009D0300089D0300089D0300089D0300084F
:100110009D0300089D0300089D0300089D0300083F
:100120009D0300089D0300089D0300089D0300082F
:100130009D03000800000000000000009D0300086F
:100140009D0300089D0300089D0300089D0300080F
:100150009D0300089D0300089D0300089D030008FF
:100160009D0300089D0300089D0300089D030008EF
:100170009D0300089D0300089D0300080000000087
:10018000000000000000000000000000000000006F
:100190009D03000800000000000000009D0300080F
:1001A0000000000000000000000000009D030008A7
:1001B0009D0300089D0300089D0300089D0300089F
:0401C0009D03000893
:1001C4000348044B834202D0034B03B118477047E2
:1001D4000000002000000020000000000548064B3D
:1001E4001B1AD90F01EBA301491002D0034B03B131
:1001F40018477047000000200000002000000000A5
:1002040010B5064C237843B9FFF7DAFF044B13B15A
:100214000448AFF300800123237010BD00000020C8
:1002240000000000A003000808B5044B1BB10449FA
:100234000448AFF30080BDE80840CFE700000000A9
:1002440004000020A003000870B50F4B0F4DAB4213
:10025400A3EB050607D0B610002455F8043B01347F
:100264009847A642F9D800F099F8094D094B5E1B4E
:10027400AB424FEAA60606D0002455F8043B0134ED
:100284009847A642F9D870BDB8030008B80300081F
:10029400B8030008C0030008002301461A461846A4
:1002A40000F014B838B5074D074C2C1BA41005D02A
:1002B400013C55F8043D9847002CF9D1BDE838407D
:1002C40000F072B8C4030008C003000870B4164DEF
:1002D4002C681CB365681F2D23DC38B9AB1C0135B1
:1002E400656044F82310002070BC704704EB850C53
:1002F4000228CCF88820D4F888614FF0010202FA71
:1003040005F246EA0206C4F88861CCF80831E5D162
:10031400D4F88C311343C4F88C31DFE7034C2C60E0
:10032400D8E74FF0FF30DFE71C000020200000205A
:10033400024B13B10248FFF7AFBF70470000000043
:10034400A9020008FEE700000D488546AFF30080CF
:100354000C480D490D4A002302E0D458C45004331C
:10036400C4188C42F9D30A4A0A4C002301E01360F2
:100374000432A242FBD3FFF767FFFFF7E3FFFEE778
:10038400000002200000002000000020C403000838
:1003940000000020B0010020FEE70000F8B500BF17
:1003A400F8BC08BC9E467047F8B500BFF8BC08BC52
:0403B4009E467047AA
:0803B800350300082D020008C6
:0403C000050200082A
:040000050800034D9F
:00000001FF
