:020000040800F2
:10000000000002201D0400086D0400086D040008B3
:100010006D0400086D0400086D0400080000000075
:100020000000000000000000000000006D04000857
:1000300000000000000000006D0400086D040008CE
:100040006D0400086D0400086D0400086D040008CC
:100050006D0400086D0400086D0400086D040008BC
:100060006D0400086D0400086D0400086D040008AC
:100070006D0400086D0400086D0400086D0400089C
:100080006D0400086D0400086D0400086D0400088C
:100090006D0400086D0400086D0400086D0400087C
:1000A0006D0400086D0400086D0400086D0400086C
:1000B0006D0400086D0400086D0400086D0400085C
:1000C0006D0400086D0400086D0400086D0400084C
:1000D0006D0400086D0400086D0400086D0400083C
:1000E0006D0400086D0400086D0400086D0400082C
:1000F0006D0400086D0400086D0400086D0400081C
:100100006D0400086D0400086D0400086D0400080B
:100110006D0400086D0400086D0400086D040008FB
:100120006D0400086D0400086D0400086D040008EB
:100130006D04000800000000000000006D040008CD
:100140006D0400086D0400086D0400086D040008CB
:100150006D0400086D0400086D0400086D040008BB
:100160006D0400086D0400086D0400086D040008AB
:100170006D0400086D0400086D0400080000000014
:10018000000000000000000000000000000000006F
:100190006D04000800000000000000006D0400086D
:1001A0000000000000000000000000006D040008D6
:1001B0006D0400086D0400086D0400086D0400085B
:0401C0006D040008C2
:1001C40010B5054C237833B9044B13B10448AFF38D
:1001D40000800123237010BD0400002000000000F3
:1001E4007004000808B5034B1BB103490348AFF37F
:1001F400008008BD00000000080000207004000812
:1002040070B50D4D0D4C641BA4100026A64209D1F7
:100214000B4D0C4C00F02AF9641BA4100026A642D6
:1002240005D170BD55F8043B98470136EEE755F803
:10023400043B98470136F2E7880400088804000864
:10024400880400089004000870477047024B13B1FB
:10025400024800F005B87047000000007102000871
:10026400002301461A46184600F014B838B5074D65
:10027400074C641BA4101CB9BDE8384000F0FCB85E
:10028400013C55F824309847F5E700BF9004000876
:10029400940400082DE9F047DFF874A00646DAF864
:1002A400000098460F469146FFF7CEFF164B1C6898
:1002B4000CB9164C1C606568DAF800001F2D05DDCA
:1002C400FFF7C3FF4FF0FF30BDE8F0879EB104EBAA
:1002D40085010122C1F88890D4F88831AA401343DB
:1002E400C4F88831022EC1F8088102BFD4F88C31D9
:1002F4001343C4F88C316B1C0235636044F82570D9
:10030400FFF7A3FF0020DFE72400002028000020DF
:100314000000002082B00023019302E0019B01331E
:100324000193019B8342F9D302B07047F8B5354A73
:10033400D2F8303843F00F03C2F83038324B196822
:1003440021F47F0222F47F421A6042F4AA0242F4AA
:10035400AA421A602D4A0A4042F4AA0242F4AA426E
:100364001A60DA6822F04062DA6042F08062DA6091
:1003740027490A6822F030020A60CA6822F0300273
:10038400CA6042F01002CA605A6922F47F625A615C
:1003940042F010025A6101273A46002616E0072669
:1003A4001C48FFF7B7FF0DB9012F1ED0164A536939
:1003B40023F47F635361301D012181400B4353615A
:1003C40042F21070FFF7A6FF2F4622460E4B1C691F
:1003D40003F580631D69AD08640BE4D1012AE2D101
:1003E400002EDCD0013EF6B2DAE70136734206F0A5
:1003F400070603F0070358BF5E42F6B20548FFF74D
:1004040089FFD3E70030024000080240FF0000F3F8
:10041400000C0240A08601000D488546AFF3008021
:100424000C480D490D4A002302E0D458C45004334B
:10043400C4188C42F9D30A4A0A4C002301E0136021
:100444000432A242FBD3FFF7DBFEFFF76FFFFEE7A8
:100454000000022000000020040000209404000892
:1004640004000020B8010020FEE70000F8B500BF3A
:10047400F8BC08BC9E467047F8B500BFF8BC08BC81
:040484009E467047D9
:0804880051020008E90100081F
:04049000C50100089A
:040494002000002024
:040000050800041DCE
:00000001FF
