:020000040800F2
:1000000000000220210400087104000871040008A7
:100010007104000871040008710400080000000069
:100020000000000000000000000000007104000853
:1000300000000000000000007104000871040008C6
:1000400071040008710400087104000871040008BC
:1000500071040008710400087104000871040008AC
:10006000710400087104000871040008710400089C
:10007000710400087104000871040008710400088C
:10008000710400087104000871040008710400087C
:10009000710400087104000871040008710400086C
:1000A000710400087104000871040008710400085C
:1000B000710400087104000871040008710400084C
:1000C000710400087104000871040008710400083C
:1000D000710400087104000871040008710400082C
:1000E000710400087104000871040008710400081C
:1000F000710400087104000871040008710400080C
:1001000071040008710400087104000871040008FB
:1001100071040008710400087104000871040008EB
:1001200071040008710400087104000871040008DB
:1001300071040008000000000000000071040008C5
:1001400071040008710400087104000871040008BB
:1001500071040008710400087104000871040008AB
:10016000710400087104000871040008710400089B
:100170007104000871040008710400080000000008
:10018000000000000000000000000000000000006F
:100190007104000800000000000000007104000865
:1001A00000000000000000000000000071040008D2
:1001B000710400087104000871040008710400084B
:0401C00071040008BE
:1001C40010B5054C237833B9044B13B10448AFF38D
:1001D40000800123237010BD0400002000000000F3
:1001E4007404000808B5034B1BB103490348AFF37B
:1001F400008008BD0000000008000020740400080E
:1002040070B50D4D0D4C641BA4100026A64209D1F7
:100214000B4D0C4C00F02CF9641BA4100026A642D4
:1002240005D170BD55F8043B98470136EEE755F803
:10023400043B98470136F2E78C0400088C0400085C
:100244008C0400089404000870477047024B13B1F3
:10025400024800F005B87047000000007102000871
:10026400002301461A46184600F014B838B5074D65
:10027400074C641BA4101CB9BDE8384000F0FEB85C
:10028400013C55F824309847F5E700BF9404000872
:10029400980400082DE9F047DFF874A00646DAF860
:1002A400000098460F469146FFF7CEFF164B1C6898
:1002B4000CB9164C1C606568DAF800001F2D05DDCA
:1002C400FFF7C3FF4FF0FF30BDE8F0879EB104EBAA
:1002D40085010122C1F88890D4F88831AA401343DB
:1002E400C4F88831022EC1F8088102BFD4F88C31D9
:1002F4001343C4F88C316B1C0235636044F82570D9
:10030400FFF7A3FF0020DFE72400002028000020DF
:100314000000002082B00023019302E0019B01331E
:100324000193019B8342F9D302B07047F8B5364A72
:10033400D2F8303843F00F03C2F83038334B196821
:1003440021F47F0222F47F421A6042F4AA0242F4AA
:10035400AA421A602E4A0A4042F4AA0242F4AA426D
:100364001A60DA6822F04062DA6042F08062DA6091
:1003740028490A6822F030020A60CA6822F0300272
:10038400CA6042F01002CA605A6922F47F625A615C
:1003940042F010025A6101273946002515E007256D
:1003A4001D48FFF7B7FF04B90FBB184A536923F47C
:1003B4007F635361281D012181400B43536142F245
:1003C4001070FFF7A7FF27463146104B1B69C3F394
:1003D4004036104A1469C4F3800413F4005FE2D178
:1003E4000029E0D0002DDAD0013DEDB2D8E7013587
:1003F4006B4205F0070503F0070358BF5D42EDB2F9
:100404000548FFF787FFD0E70030024000080240AC
:10041400FF0000F3000C0240A08601000D48854651
:10042400AFF300800C480D490D4A002302E0D45874
:10043400C4500433C4188C42F9D30A4A0A4C00232A
:1004440001E013600432A242FBD3FFF7D9FEFFF7A9
:100454006DFFFEE7000002200000002004000020E1
:100464009804000804000020B8010020FEE7000002
:10047400F8B500BFF8BC08BC9E467047F8B500BF8D
:08048400F8BC08BC9E4670475D
:08048C0051020008E90100081B
:04049400C501000896
:040498002000002020
:0400000508000421CA
:00000001FF
