:020000040800F2
:1000000000000220C90600081907000819070008A7
:100010001907000819070008190700080000000068
:1000200000000000000000000000000019070008A8
:100030000000000000000000190700081907000870
:100040001907000819070008190700081907000810
:100050001907000819070008190700081907000800
:1000600019070008190700081907000819070008F0
:1000700019070008190700081907000819070008E0
:1000800019070008190700081907000819070008D0
:1000900019070008190700081907000819070008C0
:1000A00019070008190700081907000819070008B0
:1000B00019070008190700081907000819070008A0
:1000C0001907000819070008190700081907000890
:1000D0001907000819070008FD040008190700089F
:1000E0001907000819070008190700081907000870
:1000F0001907000819070008190700081907000860
:10010000190700081907000819070008190700084F
:10011000190700081907000819070008190700083F
:10012000190700081907000819070008190700082F
:10013000190700080000000000000000190700086F
:10014000190700081907000819070008190700080F
:1001500019070008190700081907000819070008FF
:1001600019070008190700081907000819070008EF
:100170001907000819070008190700080000000007
:10018000000000000000000000000000000000006F
:10019000190700080000000000000000190700080F
:1001A0000000000000000000000000001907000827
:1001B000190700081907000819070008190700089F
:0401C0001907000813
:1001C40010B5054C237833B9044B13B10448AFF38D
:1001D40000800123237010BD0800002000000000EF
:1001E4001C07000808B5034B1BB103490348AFF3D0
:1001F400008008BD000000000C0000201C0700085F
:1002040070B50D4D0D4C641BA4100026A64209D1F7
:100214000B4D0C4C00F080FA641BA4100026A6427F
:1002240005D170BD55F8043B98470136EEE755F803
:10023400043B98470136F2E76007000860070008AE
:10024400600700086807000870477047024B13B145
:10025400024800F005B87047000000007102000871
:10026400002301461A46184600F014B838B5074D65
:10027400074C641BA4101CB9BDE8384000F052BA06
:10028400013C55F824309847F5E700BF680700089B
:100294006C0700082DE9F047DFF874A00646DAF889
:1002A400000098460F469146FFF7CEFF164B1C6898
:1002B4000CB9164C1C606568DAF800001F2D05DDCA
:1002C400FFF7C3FF4FF0FF30BDE8F0879EB104EBAA
:1002D40085010122C1F88890D4F88831AA401343DB
:1002E400C4F88831022EC1F8088102BFD4F88C31D9
:1002F4001343C4F88C316B1C0235636044F82570D9
:10030400FFF7A3FF0020DFE7280000202C000020D7
:100314000000002082B00023019302E0019B01331E
:100324000193019B8342F9D302B07047034A536996
:1003340023F47F6343EA00135361704700080240CB
:10034400174B1A6C42F400321A641A6B42F0010221
:100354001A63A3F560531A6822F0F0021A601A684F
:1003640042F0A0021A601A6A22F47F421A621A6AE0
:1003740042F4EE421A62A3F5DE3340F283629A60DD
:10038400DA6842F02C02DA60DA6842F40052DA6089
:10039400044B40225A60002283F82623704700BF92
:1003A4000038024000E100E0034B1B6813F0800FAB
:1003B400FAD0014B586070470044004010B5044621
:1003C40002E00134FFF7F0FF20780028F9D110BDD6
:1003D40008B5FFF7F3FF0248FFF7F0FF08BD00BFC1
:1003E4003407000870B504460E461546AA20FFF7E8
:1003F400DBFF681DC0B2FFF7D7FF0120FFF7D4FF72
:100404002046FFF7D1FF002404E0305DFFF7CCFF66
:100414000134E4B2AC42F8D35520FFF7C5FF70BDF8
:1004240070B582B00D4614460138052855D8DFE86A
:1004340000F003081154491A0120FFF7D3FF02B05A
:1004440070BDFF20FFF772FF224629460220FFF706
:10045400C9FFF4E70020FFF769FF2246294603207D
:10046400FFF7C0FFEBE7012AE9D90C784E781D4865
:10047400FFF7A4FF04F13000C0B2FFF795FF1A485C
:10048400FFF79CFF06F13000C0B2FFF78DFF17485D
:10049400FFF794FF072C09D8154B586900095EB182
:1004A4000123A3400343D8B2FFF740FF02222946A9
:1004B4000620FFF797FFC2E70123A34020EA0300C9
:1004C400C0B2F1E70A4B5B691B098DF804300122C5
:1004D40001A90520FFF786FFB1E70648FFF778FF7B
:1004E400ADE700BF38070008440700084C070008C0
:1004F40000080240500700081D4B1B6813F0200F32
:1005040034D01B4B5A68D2B21A4B1B780BB9AA2AA7
:1005140017D0012B1BD0991EC9B20D2923D8591C01
:10052400C9B2144801701448C254144B1B78994240
:100534001CD30139435C552B11D00E4B00221A7089
:100544007047581C0B4908700B49CA5470470B4933
:100554000A70581C074908700749CA547047084B69
:1005640001221A707047034B00221A70704700BFB3
:1005740000440040BE010020C0010020BD01002055
:10058400BC010020F8B5464AD2F8303843F00F03D6
:10059400C2F83038434B1A6822F47F0222F47F42B7
:1005A4001A601A6842F4AA0242F4AA421A601A684B
:1005B40022F040621A60DA6822F04062DA60DA6897
:1005C40042F08062DA6003F580631A6822F0300238
:1005D4001A60DA6822F03002DA60DA6842F0100257
:1005E400DA60FFF7ADFE0120FFF7A0FE01263746D3
:1005F4001EE02D4B2D4A1278053AD2B2191DD87837
:10060400FFF70EFF1BE00123294A1370C3F108030F
:10061400FF209840C0B2FFF789FE2648FFF77AFE14
:1006240004B93EBB42F21070FFF774FE26462F4613
:10063400214B1B7853B11C4B9B78012BD9D0002341
:100644001E4A13701C4A1370184A1370154B1B6909
:10065400C3F340351A4A1469C4F3800413F4005FE9
:10066400DED1002FDCD0124B1B78072BCBD8013303
:10067400DBB2C9E70E4B1B78012B0ED9013BDBB271
:100684000B4A1370C3F10803FF209840C0B2FFF770
:100694004DFE0848FFF73EFEC4E70823F0E700BF1D
:1006A4000030024000080240C0010020BD010020CB
:1006B40004000020400D0300BC010020BE01002006
:1006C400000C02400D488546AFF300800C480D49EC
:1006D4000D4A002302E0D458C4500433C4188C4299
:1006E400F9D30A4A0A4C002301E013600432A242FF
:1006F400FBD3FFF785FDFFF745FFFEE7000002206F
:1007040000000020080000206C07000808000020FA
:10071400D0010020FEE70000F8B500BFF8BC08BC1B
:100724009E467047F8B500BFF8BC08BC9E467047AB
:100734000A0000005B4C45445D204C454420000009
:10074400202D3E20000000000D0A0000556E6B6E47
:0C0754006F776E20636F6D6D616E640046
:0807600051020008E901000844
:04076800C5010008BF
:08076C00240000200100000040
:04000005080006C920
:00000001FF
