:020000040800F2
:10000000000002201D0700086D0700086D070008AA
:100010006D0700086D0700086D070008000000006C
:100020000000000000000000000000006D07000854
:1000300000000000000000006D0700086D070008C8
:100040006D0700086D0700086D0700086D070008C0
:100050006D0700086D0700086D0700086D070008B0
:100060006D0700086D0700086D0700086D070008A0
:100070006D0700086D0700086D0700086D07000890
:100080006D0700086D0700086D0700086D07000880
:100090006D0700086D0700086D0700086D07000870
:1000A0006D0700086D0700086D0700086D07000860
:1000B0006D0700086D0700086D0700086D07000850
:1000C0006D0700086D0700086D0700086D07000840
:1000D0006D0700086D0700083D0500086D07000862
:1000E0006D0700086D0700086D0700086D07000820
:1000F0006D0700086D0700086D0700086D07000810
:100100006D0700086D0700086D0700086D070008FF
:100110006D0700086D0700086D0700086D070008EF
:100120006D0700086D0700086D0700086D070008DF
:100130006D07000800000000000000006D070008C7
:100140006D0700086D0700086D0700086D070008BF
:100150006D0700086D0700086D0700086D070008AF
:100160006D0700086D0700086D0700086D0700089F
:100170006D0700086D0700086D070008000000000B
:10018000000000000000000000000000000000006F
:100190006D07000800000000000000006D07000867
:1001A0000000000000000000000000006D070008D3
:1001B0006D0700086D0700086D0700086D0700084F
:0401C0006D070008BF
:1001C40010B5054C237833B9044B13B10448AFF38D
:1001D40000800123237010BD0800002000000000EF
:1001E4007007000808B5034B1BB103490348AFF37C
:1001F400008008BD000000000C000020700700080B
:1002040070B50D4D0D4C641BA4100026A64209D1F7
:100214000B4D0C4C00F0AAFA641BA4100026A64255
:1002240005D170BD55F8043B98470136EEE755F803
:10023400043B98470136F2E76408000864080008A4
:10024400640800086C08000870477047024B13B13B
:10025400024800F005B87047000000007102000871
:10026400002301461A46184600F014B838B5074D65
:10027400074C641BA4101CB9BDE8384000F07CBADC
:10028400013C55F824309847F5E700BF6C08000896
:10029400700800082DE9F047DFF874A00646DAF884
:1002A400000098460F469146FFF7CEFF164B1C6898
:1002B4000CB9164C1C606568DAF800001F2D05DDCA
:1002C400FFF7C3FF4FF0FF30BDE8F0879EB104EBAA
:1002D40085010122C1F88890D4F88831AA401343DB
:1002E400C4F88831022EC1F8088102BFD4F88C31D9
:1002F4001343C4F88C316B1C0235636044F82570D9
:10030400FFF7A3FF0020DFE7280000202C000020D7
:100314000000002082B00023019302E0019B01331E
:100324000193019B8342F9D302B07047034A536996
:1003340023F47F6343EA00135361704700080240CB
:10034400174B1A6C42F400321A641A6B42F0010221
:100354001A63A3F560531A6822F0F0021A601A684F
:1003640042F0A0021A601A6A22F47F421A621A6AE0
:1003740042F4EE421A62A3F5DE3340F283629A60DD
:10038400DA6842F02C02DA60DA6842F40052DA6089
:10039400044B40225A60002283F82623704700BF92
:1003A4000038024000E100E0034B1B6813F0800FAB
:1003B400FAD0014B586070470044004010B5044621
:1003C40002E00134FFF7F0FF20780028F9D110BDD6
:1003D40010B504460448FFF7F1FF2046FFF7EEFF8F
:1003E4000248FFF7EBFF10BD8807000894070008D8
:1003F40070B504460E461546AA20FFF7D5FF681DC2
:10040400C0B2FFF7D1FF0120FFF7CEFF2046FFF770
:10041400CBFF002404E0305DFFF7C6FF0134E4B2F3
:10042400AC42F8D35520FFF7BFFF70BD70B582B062
:100434000D4614460138052866D8DFE800F0030DA0
:10044400196557253248FFF7C3FF22462946012084
:10045400FFF7CEFF02B070BD2E48FFF7B9FFFF20B3
:10046400FFF764FF224629460220FFF7C1FFF1E7A8
:100474002948FFF7ADFF0020FFF758FF2246294621
:100484000320FFF7B5FFE5E72448FFF7A1FF012CA0
:10049400E0D92C786E782248FFF790FF04F1300001
:1004A400C0B2FFF781FF1F48FFF788FF06F1300055
:1004B400C0B2FFF779FF1C48FFF780FF072C09D86B
:1004C4001A4B586900095EB10123A3400343D8B213
:1004D400FFF72CFF022229460620FFF789FFB9E720
:1004E4000123A34020EA0300C0B2F1E71048FFF75C
:1004F4006FFF0E4B5B691B098DF80430012201A9C3
:100504000520FFF775FFA5E70A48FFF761FFA1E79C
:1005140098070008AC070008C8070008E4070008AB
:10052400000800080C0800089407000800080240AE
:10053400140800082C0800081D4B1B6813F0200F3A
:1005440034D01B4B5A68D2B21A4B1B780BB9AA2A67
:1005540017D0012B1BD0991EC9B20D2923D8591CC1
:10056400C9B2144801701448C254144B1B78994200
:100574001CD30139435C552B11D00E4B00221A7049
:100584007047581C0B4908700B49CA5470470B49F3
:100594000A70581C074908700749CA547047084B29
:1005A40001221A707047034B00221A70704700BF73
:1005B40000440040BE010020C0010020BD01002015
:1005C400BC010020F8B5494AD2F8303843F00F0393
:1005D400C2F83038464B1A6822F47F0222F47F4274
:1005E4001A601A6842F4AA0242F4AA421A601A680B
:1005F40022F040621A60DA6822F04062DA60DA6857
:1006040042F08062DA6003F580631A6822F03002F7
:100614001A60DA6822F03002DA60DA6842F0100216
:10062400DA60FFF78DFE0120FFF780FE3148FFF707
:10063400CFFE3148FFF7CCFE012637461EE02F4B94
:100644002F4A1278053AD2B2191DD878FFF7EEFE78
:100654001BE001232B4A1370C3F10803FF209840C9
:10066400C0B2FFF763FE2848FFF754FE04B93EBB4F
:1006740042F21070FFF74EFE26462F46234B1B789E
:1006840053B11E4B9B78012BD9D00023204A137001
:100694001E4A13701A4A1370154B1B69C3F3403575
:1006A4001C4A1469C4F3800413F4005FDED1002FE4
:1006B400DCD0144B1B78072BCBD80133DBB2C9E752
:1006C400104B1B78012B0ED9013BDBB20D4A137082
:1006D400C3F10803FF209840C0B2FFF727FE0A4881
:1006E400FFF718FEC4E70823F0E700BF003002401C
:1006F400000802403C0800084C080008C001002023
:10070400BD01002004000020400D0300BC010020B6
:10071400BE010020000C02400D488546AFF3008066
:100724000C480D490D4A002302E0D458C450043348
:10073400C4188C42F9D30A4A0A4C002301E013601E
:100744000432A242FBD3FFF75BFDFFF73BFFFEE75A
:1007540000000220000000200800002070080008AB
:1007640008000020D0010020FEE70000F8B500BF1B
:10077400F8BC08BC9E467047F8B500BFF8BC08BC7E
:040784009E467047D6
:100788005B44454255475D20000000000D0A00000B
:10079800434D445F4543484F2072656365697665FC
:1007A80064000000434D445F4C4544535F414C4C4A
:1007B8005F4F4E20726563656976656400000000CE
:1007C800434D445F4C4544535F414C4C5F4F464654
:1007D800207265636569766564000000434D445F77
:1007E8005345545F53494E474C455F4C454420722E
:1007F80065636569766564005B4C45445D204C45DE
:1008080044200000202D3E2000000000434D445F9E
:100818004C45445F5354415445207265636569767D
:1008280065640000556E6B6E6F776E20636F6D6D3B
:10083800616E640053797374656D2053544152544A
:1008480045440000526561647920666F7220636FC9
:0C0858006D6D616E64732E2E2E0000008A
:0808640051020008E90100083F
:04086C00C5010008BA
:0808700024000020010000003B
:040000050800071DCB
:00000001FF
